:100000000C945D000C9485000C9485000C94850084
:100010000C9485000C9485000C9485000C9485004C
:100020000C9485000C9485000C9485000C94B0030E
:100030000C9485000C9485000C9485000C9485002C
:100040000C940E030C9485000C947E030C945803BE
:100050000C9485000C9485000C9485000C9485000C
:100060000C9485000C9485000000000024002700FB
:100070002A0000000000250028002B0004040404CE
:100080000404040402020202020203030303030342
:10009000010204081020408001020408102001021F
:1000A00004081020000000080002010000030407FB
:1000B0000000000000000000870411241FBECFEFE5
:1000C000D8E0DEBFCDBF11E0A0E0B1E0EEEDFCE096
:1000D00002C005900D92A231B107D9F721E0A2E14B
:1000E000B1E001C01D92AD3EB207E1F710E0CDE5F1
:1000F000D0E004C02197FE010E946706CC35D107ED
:10010000C9F70E94C7040C946D060C94000090E09F
:10011000FC01EC55FF4F2491FC01E057FF4F349157
:10012000FC01E458FF4FE491EE23C9F0222339F09B
:10013000233001F1A8F4213019F1223029F1F0E047
:10014000EE0FFF1FEE58FF4FA591B4918FB7F894B3
:10015000EC91611126C030953E233C938FBF0895EA
:100160002730A9F02830C9F0243049F78091800069
:100170008F7D03C0809180008F7780938000DFCFD8
:1001800084B58F7784BDDBCF84B58F7DFBCF809125
:10019000B0008F778093B000D2CF8091B0008F7D78
:1001A000F9CF3E2BDACF8E3008F08E508770806406
:1001B00080937C0080917A00806480937A008091A3
:1001C0007A0086FDFCCF80917800909179000895A7
:1001D0003FB7F89480913D0190913E01A0913F017D
:1001E000B091400126B5A89B05C02F3F19F001969C
:1001F000A11DB11D3FBFBA2FA92F982F8827BC0181
:10020000CD01620F711D811D911D42E0660F771FA8
:10021000881F991F4A95D1F70895AF92BF92CF9248
:10022000DF92EF92FF920F931F93CF93DF936C01B6
:100230007B018B01040F151FEB015E01AE18BF0897
:10024000C017D10759F06991D601ED91FC91019049
:10025000F081E02DC6010995892B79F7C501DF9161
:10026000CF911F910F91FF90EF90DF90CF90BF90B3
:10027000AF900895FC01538D448D252F30E0842FDD
:1002800090E0821B930B541710F0CF9608950197BE
:100290000895FC01918D828D981761F0A28DAE0FAB
:1002A000BF2FB11D5D968C91928D9F5F9F73928F32
:1002B00090E008958FEF9FEF0895FC01918D828D5E
:1002C000981731F0828DE80FF11D858D90E008952B
:1002D0008FEF9FEF0895FC01918D228D892F90E083
:1002E000805C9F4F821B91098F739927089581E449
:1002F00091E00E946B0121E0892B09F420E0822F1C
:10030000089580E090E0892B29F00E947701811107
:100310000C9400000895FC01A48DA80FB92FB11D05
:10032000A35ABF4F2C91848D90E001968F7399272B
:10033000848FA689B7892C93A089B1898C91837009
:1003400080648C93938D848D981306C00288F38902
:10035000E02D80818F7D80830895EF92FF920F932F
:100360001F93CF93DF93EC0181E0888F9B8D8C8D61
:1003700098131AC0E889F989808185FF15C09FB755
:10038000F894EE89FF896083E889F9898081837018
:10039000806480839FBF81E090E0DF91CF911F91C7
:1003A0000F91FF90EF900895F62E0B8D10E00F5FE8
:1003B0001F4F0F731127E02E8C8D8E110CC00FB6BE
:1003C00007FCFACFE889F989808185FFF5CFCE0156
:1003D0000E948B01F1CFEB8DEC0FFD2FF11DE35A45
:1003E000FF4FF0829FB7F8940B8FEA89FB898081D9
:1003F0008062CFCFCF93DF93EC01888D8823B9F053
:10040000AA89BB89E889F9898C9185FD03C080811F
:1004100086FD0DC00FB607FCF7CF8C9185FFF2CF9C
:10042000808185FFEDCFCE010E948B01E9CFDF9166
:10043000CF910895CF92DF92EF92FF92CF93DF9307
:10044000EC01603282E07807CCF5653B710514F071
:1004500064EB70E0898128E830E0281B310987FDD2
:100460003395220F331F220F331F6901330FEE081C
:10047000FF088A8128E532E0281B310987FD339582
:10048000220F331F220F331F032E000C440B550B7A
:100490002C193D094E095F09DB0177FF02C0B0E06E
:1004A000A0E00E941B0624EB30E040E050E00E94F8
:1004B000F105C20ED31EE41EF51EB601E881EC3034
:1004C00070F5298188E890E0821B910927FD9395BA
:1004D000880F991F880F991F681779077CF02A8168
:1004E00088E592E0821B910927FD9395880F991F5B
:1004F000880F991F681779070CF4CB010297880FB2
:10050000991F4FB7F8942E2F30E0F901EE0FFF1F1F
:10051000E20FF31FEC5EFE4F928381834FBFDF91AA
:10052000CF91FF90EF90DF90CF900895CF93DF931E
:10053000DC018C918C3008F06DC0CB01FB01E057E1
:10054000FF4F249184589F4FFC018491882399F098
:1005500090E0880F991FFC01E859FF4FC591D49195
:10056000FC01EE58FF4F859194918FB7F894E88184
:10057000E22BE8838FBF8C91282F30E0F901EE0F3A
:10058000FF1FE20FF31FEC5EFE4F962F9F736081FB
:10059000607C692B608311961C92119712961C92B5
:1005A00012972CE0622F0E945406829FB001112402
:1005B00030E020E0AB01420F531FFA01EE0FFF1FA6
:1005C000E40FF51FEC5EFE4F908196FD16C02F5F85
:1005D0003F4F2C30310571F781110FC01092800010
:1005E00082E0809381001092850010928400B19A7D
:1005F00080916F00826080936F00EC918E2F90E06D
:10060000FC01EE0FFF1FE80FF91FEC5EFE4F80812B
:10061000806480838C91DF91CF9108951F920F9217
:100620000FB60F9211242F933F938F939F93AF9305
:10063000BF938091390190913A01A0913B01B09113
:100640003C013091380123E0230F2D3758F50196F6
:10065000A11DB11D209338018093390190933A0177
:10066000A0933B01B0933C0180913D0190913E01EC
:10067000A0913F01B09140010196A11DB11D809351
:100680003D0190933E01A0933F01B0934001BF9183
:10069000AF919F918F913F912F910F900FBE0F902F
:1006A0001F90189526E8230F0296A11DB11DD2CFE9
:1006B0001F920F920FB60F9211242F933F934F93D7
:1006C0005F936F937F938F939F93AF93BF93EF93BA
:1006D000FF9381E491E00E948B01FF91EF91BF9124
:1006E000AF919F918F917F916F915F914F913F91CA
:1006F0002F910F900FBE0F901F9018951F920F9281
:100700000FB60F9211242F938F939F93EF93FF9324
:10071000E0915101F09152018081E0915701F091F7
:10072000580182FD1BC0908180915A018F5F8F73A9
:1007300020915B01821741F0E0915A01F0E0EF5BFC
:10074000FE4F958F80935A01FF91EF919F918F916A
:100750002F910F900FBE0F901F9018958081F4CFAE
:100760001F920F920FB60F9211242F933F934F9326
:100770005F936F937F938F939F93AF93BF93CF9329
:10078000DF93EF93FF9380911201C0911301D0E0AA
:1007900087FF24C01092850010928400809112017E
:1007A0008F5F8093120180911201082E000C990B2B
:1007B0008C179D0724F4809112018C30C4F1809134
:1007C000840090918500049680349C4908F47AC096
:1007D0008091840090918500049676C080911201EA
:1007E000082E000C990B8C179D07C4F6E09112019E
:1007F0008E2FEE0F990BFC01EE0FFF1FE80FF91F74
:10080000EC5EFE4F808186FFC9CFE09112018E2FF2
:10081000EE0F990BFC01EE0FFF1FE80FF91FEC5EC6
:10082000FE4F808160E08F730E948700B7CF2091D8
:10083000840030918500E09112018E2FEE0F990B0C
:10084000FC01EE0FFF1FE80FF91FEC5EFE4F8181E8
:100850009281820F931F9093890080938800E0918A
:1008600012018E2FEE0F990BFC01EE0FFF1FE80F08
:10087000F91FEC5EFE4F808186FF11C0E0911201EE
:100880008E2FEE0F990BFC01EE0FFF1FE80FF91FE3
:10089000EC5EFE4F808161E08F730E948700FF91C4
:1008A000EF91DF91CF91BF91AF919F918F917F9108
:1008B0006F915F914F913F912F910F900FBE0F90CD
:1008C0001F90189580E49CE990938900809388009C
:1008D0008FEF80931201E3CFFC01909113019C30C4
:1008E00098F481E0890F809313019083892F90E021
:1008F000FC01EE0FFF1FE80FF91FEC5EFE4F88EBC7
:100900009BE09283818308958FEF80830895E1E4D3
:10091000F1E01382128288EE93E0A0E0B0E08483DD
:100920009583A683B78384E091E09183808385ECEF
:1009300090E09587848784EC90E09787868780ECA9
:1009400090E0918B808B81EC90E0938B828B82EC9A
:1009500090E0958B848B86EC90E0978B868B118E44
:10096000128E138E148E8AEE91E00E946C0487EE34
:1009700091E00E946C0484EE91E00E946C0481EE90
:1009800091E00E946C048EED91E00C946C047894DC
:1009900084B5826084BD84B5816084BD85B5826084
:1009A00085BD85B5816085BD80916E008160809335
:1009B0006E0010928100809181008260809381009E
:1009C00080918100816080938100809180008160AE
:1009D000809380008091B10084608093B100809109
:1009E000B00081608093B00080917A008460809331
:1009F0007A0080917A00826080937A0080917A00F8
:100A0000816080937A0080917A00806880937A0078
:100A10001092C100E0915101F091520182E0808377
:100A2000E0914D01F0914E011082E0914F01F09163
:100A300050018FEC808310925901E0915501F091A3
:100A4000560186E08083E0915301F091540180814A
:100A500080618083E0915301F0915401808188602E
:100A60008083E0915301F0915401808180688083FC
:100A7000E0915301F091540180818F7D808363E088
:100A800070E08AEE91E00E94960265E070E087EEE9
:100A900091E00E94960266E070E087EE91E00E948D
:100AA000960269E070E087EE91E00E9496026AE0AB
:100AB00070E087EE91E00E94960244244A9493E00D
:100AC000592E612C712C20E0222E20E0322E8EE057
:100AD0000E94D3005C018FE00E94D3006C0180E192
:100AE0000E94D3007C0181E10E94D3008C0182E14D
:100AF0000E94D300EC0124EB30E0D5010E94600697
:100B0000A30192010E94F105B9018AEE91E00E94D1
:100B10001A0224EB30E0D6010E946006A301920184
:100B20000E94F105B90187EE91E00E941A0224EBC0
:100B300030E0D7010E946006A30192010E94F105F6
:100B4000B90184EE91E00E941A0224EB30E0D80152
:100B50000E946006A30192010E94F105B90181EE95
:100B600091E00E941A0224EB30E0DE010E94600650
:100B7000A30192010E94F105B9018EED91E00E945E
:100B80001A020E94E8004B015C0184E6C82ED12CB9
:100B9000E12CF12C0E94E800681979098A099B0967
:100BA000683E734081059105A8F321E0C21AD1087F
:100BB000E108F10888EE880E83E0981EA11CB11CA4
:100BC000C114D104E104F10429F72114310409F41A
:100BD0007ECF0E947701882309F479CF0E9400001C
:100BE00076CF052E97FB1EF400940E94080657FD51
:100BF00007D00E94230607FC03D04EF40C9408068D
:100C000050954095309521953F4F4F4F5F4F089538
:100C100090958095709561957F4F8F4F9F4F089568
:100C20000E944506A59F900DB49F900DA49F800D36
:100C3000911D11240895B7FF0C9410060E94100610
:100C4000821B930B0895A1E21A2EAA1BBB1BFD0168
:100C50000DC0AA1FBB1FEE1FFF1FA217B307E4079B
:100C6000F50720F0A21BB30BE40BF50B661F771FF3
:100C7000881F991F1A9469F76095709580959095D3
:100C80009B01AC01BD01CF010895A29FB001B39FAC
:100C9000C001A39F700D811D1124911DB29F700D85
:100CA000811D1124911D0895991B79E004C0991F9D
:100CB000961708F0961B881F7A95C9F780950895B6
:100CC0000E944506B7FF0895821B930B0895EE0F0F
:0E0CD000FF1F0590F491E02D0994F894FFCFDA
:100CDE0000000000AD010D013A01FA016B0149015E
:020CEE005D01A6
:00000001FF
